:020000040800F2
:1000000000280020D911000871100008771000089E
:100010007D1000088310000889100008000000000F
:100020000000000000000000000000008F10000829
:100030009B10000800000000A7100008B310000883
:1000400021120008211200082112000821120008C4
:1000500021120008211200082112000821120008B4
:1000600021120008211200082112000821120008A4
:100070002112000821120008211200082112000894
:100080002112000821120008211200082112000884
:100090002112000821120008211200082112000874
:1000A0002112000821120008211200082112000864
:1000B000C1100008211200080000000021120008F1
:1000C00021120008000000000000000021120008BA
:1000D00000000000211200082112000800000000AA
:1000E000211200082112000821120008000000005F
:1000F0000000000000000000000000000000000000
:0C01000000000000000000005FF808F1A3
:10010C0010B5054C237833B9044B13B10448AFF345
:10011C0000800123237010BDAC0000200000000003
:10012C009428000808B5034B1BB103490348AFF3EF
:10013C00008008BD00000000B000002094280008DA
:10014C0080B483B000AF7860094A7B6852F82330E2
:10015C00012B06D1064A7B68002142F823100123AB
:10016C0000E0002318460C37BD4680BC704700BF2A
:10017C00C800002080B483B000AF7860094A7B6867
:10018C0052F82330012B06D1064A7B68002142F835
:10019C002310012300E0002318460C37BD4680BC19
:1001AC00704700BFD400002080B483B000AF7860EB
:1001BC00044A7B68012142F8231000BF0C37BD466E
:1001CC0080BC7047C800002080B483B000AF78605A
:1001DC00044A7B68012142F8231000BF0C37BD464E
:1001EC0080BC7047D400002080B582B000AF0023E3
:1001FC007B6076E03F4A7B6852F823203E497B685F
:10020C0041F823203D4A7B6852F8232039497B680A
:10021C0041F823203A4A7B6852F8232039497B68FD
:10022C0031F813301946104601F0E0FA034619462E
:10023C00324A7B6842F823102E4A7B6852F82320FE
:10024C002E497B6851F823309A4247D1294A7B6862
:10025C0052F8232028497B6851F823309A423DD12B
:10026C00254A7B6852F8232027497B6851F82330B4
:10027C009A4216D0204A7B6852F8232022497B6888
:10028C0041F82320204A7B6852F82330002B25D1DB
:10029C001E4A7B68642142F823107868FFF784FFBC
:1002AC001CE01A4A7B6852F823305A1E17497B68A7
:1002BC0041F82320154A7B6852F82330002B0DD1CE
:1002CC00114A7B6852F82330002B07D17868FFF76E
:1002DC007BFF0E4A7B68642142F823107B68013354
:1002EC007B607B68022B85DD00BF00BF0837BD46F5
:1002FC0080BD00BF0C000020180000200000002072
:10030C003C00002048000020240000203000002089
:10031C0080B582B000AF78603960084A7B6852F8CB
:10032C002300074A7B6832F813303A68D2B2194678
:10033C0001F073FA00BF0837BD4680BD50000020A5
:10034C006800002080B582B000AF78603960084A40
:10035C007B6852F82300074A7B6832F813303A68FE
:10036C00D2B2194601F059FA00BF0837BD4680BD1C
:10037C00580000206C00002080B582B000AF78607F
:10038C003960084A7B6852F82300074A7B6832F8C8
:10039C0013303A68D2B2194601F03FFA00BF083761
:1003AC00BD4680BD600000207000002080B500AF0D
:1003BC00B34B1B78032B00F2758301A252F823F088
:1003CC00DD03000865060008E10700082F09000896
:1003DC000020FFF7B5FE0346002B05D0A94B0022E9
:1003EC001A70A74B01221A70A74B1B78032B72D8DB
:1003FC0001A252F823F000BF1504000843040008C2
:10040C0075040008A70400089F4B01221A709F4B2B
:10041C001B681946002000F05DFE0A21022000F046
:10042C0059FE9B4B01221A609A4B00221A609A4B80
:10043C0000221A604FE0002000F06CFE0346002BF7
:10044C0044D0914B03221A70944B1B681946002020
:10045C0000F040FE8E4B00221A608E4B00221A6078
:10046C008D4B01221A6031E0002000F053FE034650
:10047C00002B2DD0844B01221A70844B1B6819461B
:10048C00002000F027FE824B01221A60814B0022D3
:10049C001A60814B00221A601AE0002000F03AFE2C
:1004AC000346002B16D0784B02221A707C4B1B682B
:1004BC001946002000F00EFE754B00221A60754B99
:1004CC0001221A60744B00221A6003E000BF02E0A4
:1004DC0000BF00E000BF6E4B1B6819460020FFF701
:1004EC0017FF6C4B1B6819460020FFF72BFF6A4B5C
:1004FC001B6819460020FFF73FFF634B5B78032B0B
:10050C006DD801A252F823F0250500084B05000810
:10051C007D050008AF0500085B4B03225A705F4B4A
:10052C001B681946012000F0D5FD594B00225A607A
:10053C00584B00225A60584B01225A604FE0012060
:10054C0000F0E8FD0346002B44D04F4B03225A70B9
:10055C00524B1B681946012000F0BCFD4C4B00228D
:10056C005A604C4B00225A604B4B01225A6031E0CE
:10057C00012000F0CFFD0346002B2DD0424B012271
:10058C005A70424B1B681946012000F0A3FD404BEA
:10059C0001225A603F4B00225A603F4B00225A60A6
:1005AC001AE0012000F0B6FD0346002B16D0364BA6
:1005BC0002225A703A4B1B681946012000F08AFD42
:1005CC00334B00225A60334B01225A60324B0022CB
:1005DC005A6003E000BF02E000BF00E000BF2C4BFC
:1005EC005B6819460120FFF793FE2A4B5B6819469E
:1005FC000120FFF7A7FE284B5B6819460120FFF787
:10060C00BBFE022000F086FD0346002B00F0498261
:10061C00002000F093FD03461946002000F086FCF4
:10062C00012000F08BFD03461946012000F07EFCF2
:10063C001C4B1B68032B02DD1A4B00221A60194B52
:10064C001B685A1C17490A60184600F0D3FBFA21A4
:10065C00022000F03FFD24E20020FFF771FD03466D
:10066C00002B05D0104B00221A70054B02221A7079
:10067C00044B1B78002B19D0012B3ED0A9E000BFF6
:10068C00E0000020F0000020E400002074000020B6
:10069C0080000020E8000020880000207C00002062
:1006AC007800002000010020F1000020BB4B01224B
:1006BC001A70FA21032000F00DFD0A21022000F02F
:1006CC0009FDB74B00221A6001210020FFF720FE24
:1006DC0000210020FFF736FE00210020FFF74CFE22
:1006EC0001210120FFF714FE00210120FFF72AFE53
:1006FC0000210120FFF740FE6BE0032000F00AFD13
:10070C000346002B0BD0FA21032000F0E3FC02215E
:10071C00A44801F09AF81021A24801F096F80120A3
:10072C00FFF70EFD0346002B0DD09F4B1B680133CA
:10073C009D4A13609C4B1B68632B04DD9A4B1B6812
:10074C00643B994A13600120FFF714FD0346002B0C
:10075C000DD0954B1B680A33934A1360924B1B6860
:10076C00632B04DD904B1B68643B8F4A13600220A3
:10077C00FFF7E6FC0346002B07D08B4B1B684FF4AE
:10078C007A7202FB03F3894A1360022000F0C2FC68
:10079C000346002B1CD0FA21022000F09BFC022106
:1007AC00002000F0C3FB804B1B681946012000F0B1
:1007BC00BDFB7B4B1B68032B02DD794B00221A60BF
:1007CC00774B1B685A1C76490A60184600F012FBDE
:1007DC0000BF67E10020FFF7B3FC0346002B05D0F8
:1007EC00734B00221A70734B03221A70724B1B78D6
:1007FC00002B02D0012B27D092E06F4B01221A70F4
:10080C00FA21032000F066FC0A21022000F062FCB1
:10081C00634B00221A6000210020FFF779FD0121B3
:10082C000020FFF78FFD00210020FFF7A5FD002120
:10083C000120FFF76DFD01210120FFF783FD002151
:10084C000120FFF799FD6BE0032000F063FC0346E9
:10085C00002B0BD0FA21032000F03CFC0421514862
:10086C0000F0F3FF20214F4800F0EFFF0120FFF7CD
:10087C0067FC0346002B0DD0504B1B6801334F4ACD
:10088C0013604E4B1B68632B04DD4C4B1B68643BA5
:10089C004A4A13600120FFF76DFC0346002B0DD074
:1008AC00464B1B680A33454A1360444B1B68632B49
:1008BC0004DD424B1B68643B404A13600220FFF787
:1008CC003FFC0346002B07D03C4B1B684FF47A725D
:1008DC0002FB03F33A4A1360022000F01BFC0346B0
:1008EC00002B1CD0FA21022000F0F4FB0321002085
:1008FC0000F01CFB314B1B681946012000F016FB65
:10090C00274B1B68032B02DD254B00221A60244B5E
:10091C001B685A1C22490A60184600F06BFA00BF8B
:10092C00C0E00020FFF70CFC0346002B08D0254B41
:10093C0000221A70234B00225A701E4B00221A7090
:10094C001B4B1B78002B02D0012B3DD0A8E0184B81
:10095C0001221A70FA21032000F0BCFB0A210220AC
:10096C0000F0B8FB0E4B00221A6000210020FFF7AC
:10097C00CFFC00210020FFF7E5FC01210020FFF750
:10098C00FBFC00210120FFF7C3FC00210120FFF735
:10099C00D9FC01210120FFF7EFFC81E0F0000020E1
:1009AC000001002000080140F40000207400002029
:1009BC00F2000020E0000020F1000020F8000020F0
:1009CC0078000020E4000020032000F0A3FB034685
:1009DC00002B0BD0FA21032000F07CFB08213248BD
:1009EC0000F033FF4021304800F02FFF0120FFF7CB
:1009FC00A7FB0346002B0DD02C4B1B6801332B4A55
:100A0C0013602B4B1B68632B04DD284B1B68643B6A
:100A1C00264A13600120FFF7ADFB0346002B0DD0D7
:100A2C00224B1B680A33214A1360204B1B68632B33
:100A3C0004DD1E4B1B68643B1C4A13600220FFF74D
:100A4C007FFB0346002B07D0184B1B684FF47A72C0
:100A5C0002FB03F3174A1360022000F05BFB034612
:100A6C00002B1CD0FA21022000F034FB04210020C2
:100A7C0000F05CFA0D4B1B681946012000F056FA89
:100A8C000D4B1B68032B02DD0B4B00221A600A4B2B
:100A9C001B685A1C08490A60184600F0ABF900BFE5
:100AAC0000E000BF00BF80BD00080140FC0000203A
:100ABC00F80000207C0000200001002080B500AF71
:100ACC0000F0AAFB00F00CF800F092F800F044F8EB
:100ADC00024801F00BFBFFF769FCFCE72401002046
:100AEC0080B590B000AF07F11803282200211846FA
:100AFC0001F0C2FE3B1D00221A605A609A60DA6057
:100B0C001A610223BB610123BB621023FB62002329
:100B1C007B6307F11803184600F0B0FE0346002B68
:100B2C0001D000F0D3F80F237B600023BB600023BF
:100B3C00FB6000233B6100237B613B1D00211846B9
:100B4C0001F01CF90346002B01D000F0BFF800BFE8
:100B5C004037BD4680BD000080B586B000AF07F1C0
:100B6C00080300221A605A609A60DA603B46002241
:100B7C001A605A601D4B4FF080421A601B4B41F6B5
:100B8C003F725A60194B00229A60184B0922DA60A6
:100B9C00164B00221A61154B00229A61134801F082
:100BAC0055FA0346002B01D000F090F84FF4805317
:100BBC00BB6007F1080319460C4801F0EBFB034638
:100BCC00002B01D000F082F800233B6000237B60F7
:100BDC003B461946054801F0B3FD0346002B01D0F6
:100BEC0000F074F800BF1837BD4680BD240100200A
:100BFC0080B586B000AF07F1080300221A605A6076
:100C0C009A60DA60284B9B69274A43F0040393618E
:100C1C00254B9B6903F004037B607B68224B9B692B
:100C2C00214A43F0080393611F4B9B6903F00803AF
:100C3C003B603B68002240F67E711C4800F0EDFDE5
:100C4C0000227F211A4800F0E8FD40F67E73BB605D
:100C5C000123FB6000233B6102237B6107F1080346
:100C6C001946124800F048FC7F23BB600123FB604F
:100C7C0000233B6102237B6107F1080319460C48F2
:100C8C0000F03AFC4FF4E043BB600023FB60002310
:100C9C003B6107F108031946044800F02DFC00BF26
:100CAC001837BD4680BD00BF00100240000801404F
:100CBC00000C014080B582B000AF7860FFF794FA69
:100CCC0000F054FA00BF0837BD4680BD80B400AFB9
:100CDC0072B600BFFEE7000080B5C8B000AF3B1D88
:100CEC00186007F10803414A184611464FF48C73FB
:100CFC001A4601F0B3FD07F108013B1D1A681346B3
:100D0C00DB009B1A9B000B441B68DBB21A460121CB
:100D1C00374800F082FD07F108013B1D1A681346A5
:100D2C00DB009B1A9B000B4404331B68DBB21A4696
:100D3C0002212F4800F071FD07F108013B1D1A68D4
:100D4C001346DB009B1A9B000B4408331B68DBB279
:100D5C001A460421264800F060FD07F108013B1DEE
:100D6C001A681346DB009B1A9B000B440C331B6860
:100D7C00DBB21A4608211E4800F04FFD07F10801AE
:100D8C003B1D1A681346DB009B1A9B000B44103367
:100D9C001B68DBB21A461021154800F03EFD07F126
:100DAC0008013B1D1A681346DB009B1A9B000B4481
:100DBC0014331B68DBB21A4620210D4800F02DFDC0
:100DCC0007F108013B1D1A681346DB009B1A9B00B8
:100DDC000B4418331B68DBB21A464021044800F060
:100DEC001CFD00BF07F59077BD4680BDAC28000800
:100DFC00000C014080B582B000AF78607B68032B9B
:100E0C0000F28C8001A252F823F000BF290E0008DA
:100E1C00690E0008A90E0008E90E000800224FF424
:100E2C000071404800F0F9FC01224FF480713D48FC
:100E3C0000F0F3FC01224FF480613A4800F0EDFC25
:100E4C0001224FF40061374800F0E7FC364A7B681A
:100E5C0052F823301846FFF73FFF5FE001224FF4B2
:100E6C000071304800F0D9FC00224FF480712D48FD
:100E7C0000F0D3FC01224FF480612A4800F0CDFC35
:100E8C0001224FF40061274800F0C7FC264A7B681A
:100E9C0052F823301846FFF71FFF3FE001224FF4B2
:100EAC000071204800F0B9FC01224FF480711D48FC
:100EBC0000F0B3FC00224FF480611A4800F0ADFC46
:100ECC0001224FF40061174800F0A7FC164A7B681A
:100EDC0052F823301846FFF7FFFE1FE001224FF4B3
:100EEC000071104800F099FC01224FF480710D48FC
:100EFC0000F093FC01224FF480610A4800F08DFC55
:100F0C0000224FF40061074800F087FC064A7B681A
:100F1C0052F823301846FFF7DFFE00BF00BF08373A
:100F2C00BD4680BD000801409000002080B483B015
:100F3C0000AF786039607B68002B03D07B68012B95
:100F4C0018D02FE03B681A4A82FB03129210DB1771
:100F5C00D31A184A13603968154B83FB01239A1076
:100F6C00CB17D21A13469B0013445B00CA1A114BC1
:100F7C005A6017E03B680E4A82FB03129210DB1793
:100F8C00D31A0C4A93603968094B83FB01239A10DE
:100F9C00CB17D21A13469B0013445B00CA1A054B9D
:100FAC00DA6000BF00BF0C37BD4680BC704700BF85
:100FBC00676666669000002080B485B000AF154B64
:100FCC009B69144A43F001039361124B9B6903F034
:100FDC000103BB60BB680F4BDB690E4A43F08053C7
:100FEC00D3610C4BDB6903F080537B607B680A4B4D
:100FFC005B68FB60FB6823F0E063FB60FB6843F01D
:10100C008063FB60044AFB68536000BF1437BD4625
:10101C0080BC7047001002400000014080B584B0D5
:10102C0000AF78607B681B68B3F1804F13D10C4B19
:10103C00DB690B4A43F00103D361094BDB6903F015
:10104C000103FB60FB68002200211C2000F01DFA4C
:10105C001C2000F036FA00BF1037BD4680BD00BF23
:10106C000010024080B400AFFEE780B400AFFEE792
:10107C0080B400AFFEE780B400AFFEE780B400AFF1
:10108C00FEE780B400AF00BFBD4680BC704780B4A3
:10109C0000AF00BFBD4680BC704780B400AF00BF3E
:1010AC00BD4680BC704780B500AF00F0FBF800BFB8
:1010BC0080BD000080B500AF024801F063F800BFAE
:1010CC0080BD00BF2401002080B400AF00BFBD462E
:1010DC0080BC704780B483B000AF786039603B68E7
:1010EC00094A82FB03129210DB17D21A07497B685C
:1010FC0041F82320064A7B68002142F8231000BFE8
:10110C000C37BD4680BC70476766666604010020DC
:10111C001401002080B483B000AF7860064A7B686D
:10112C0052F82330012B01D1012300E00023184693
:10113C000C37BD4680BC70471401002080B483B0CE
:10114C0000AF7860074A7B6852F82330064A82FB6E
:10115C0003125211DB17D31A013318460C37BD4654
:10116C0080BC7047040100201F85EB5180B483B014
:10117C0000AF00237B601CE0124A7B6852F82330DE
:10118C00002B13DD0F4A7B6852F823305A1E0D4991
:10119C007B6841F823200B4A7B6852F82330002BE4
:1011AC0004D1094A7B68012142F823107B68013382
:1011BC007B607B68032BDFDD00BF00BF0C37BD46B7
:1011CC0080BC704704010020140100200C480D491C
:1011DC000D4A002302E0D458C4500433C4188C4286
:1011EC00F9D30A4A0A4C002301E013600432A242EC
:1011FC00FBD3FFF769FF01F00DFBFFF75FFC7047B6
:10120C0000000020AC000020EC290008AC000020FD
:10121C0070010020FEE7000080B500AF084B1B6892
:10122C00074A43F010031360032000F023F90F204A
:10123C0000F008F8FFF7C0FE0023184680BD00BF81
:10124C000020024080B582B000AF7860124B1A6863
:10125C00124B1B7819464FF47A73B3FBF1F3B2FBC4
:10126C00F3F3184600F03BF90346002B01D00123A1
:10127C000EE07B680F2B0AD8002279684FF0FF3004
:10128C0000F003F9064A7B681360002300E0012399
:10129C0018460837BD4680BDA0000020A8000020DD
:1012AC00A400002080B400AF054B1B781A46054BF8
:1012BC001B681344034A136000BFBD4680BC7047D3
:1012CC00A80000206C01002080B400AF024B1B680A
:1012DC001846BD4680BC70476C01002080B485B0B8
:1012EC0000AF78607B6803F00703FB600C4BDB6896
:1012FC00BB60BA684FF6FF031340BB60FB681A0271
:10130C00BB68134343F0BF6343F40033BB60044A30
:10131C00BB68D36000BF1437BD4680BC704700BFAC
:10132C0000ED00E080B400AF044BDB681B0A03F057
:10133C0007031846BD4680BC704700BF00ED00E0B7
:10134C0080B483B000AF0346FB7197F90730002BD4
:10135C000BDBFB7903F01F02064997F907305B0999
:10136C00012000FA02F241F8232000BF0C37BD46E1
:10137C0080BC704700E100E080B483B000AF03464E
:10138C003960FB7197F90730002B0ADB3B68DAB246
:10139C000C4997F907301201D2B20B4483F80023A1
:1013AC000AE03B68DAB20849FB7903F00F03043B0F
:1013BC001201D2B20B441A7600BF0C37BD4680BC6A
:1013CC00704700BF00E100E000ED00E080B489B0A0
:1013DC0000AFF860B9607A60FB6803F00703FB614B
:1013EC00FB69C3F10703042B28BF0423BB61FB6912
:1013FC000433062B02D9FB69033B00E000237B611D
:10140C004FF0FF32BB6902FA03F3DA43BB681A40B0
:10141C007B699A404FF0FF317B6901FA03F3D943A2
:10142C007B680B40134318462437BD4680BC70477D
:10143C0080B582B000AF78607B68013BB3F1807FF0
:10144C0001D301230FE00A4A7B68013B53600F2153
:10145C004FF0FF30FFF790FF054B00229A60044BD2
:10146C0007221A60002318460837BD4680BD00BF0E
:10147C0010E000E080B582B000AF78607868FFF7CC
:10148C002DFF00BF0837BD4680BD80B586B000AFCC
:10149C000346B9607A60FB7300237B61FFF742FF60
:1014AC0078617A68B9687869FFF790FF024697F916
:1014BC000F3011461846FFF75FFF00BF1837BD46C7
:1014CC0080BD80B582B000AF0346FB7197F9073041
:1014DC001846FFF735FF00BF0837BD4680BD80B505
:1014EC0082B000AF78607868FFF7A2FF0346184619
:1014FC000837BD4680BD000080B48BB000AF78606B
:10150C00396000237B6200233B6248E101227B6A45
:10151C0002FA03F3FB613B681B68FA691340BB6179
:10152C00BA69FB699A4240F037813B685B68A34A11
:10153C0093425ED0A14A934275D8A14A934258D0A7
:10154C009F4A93426FD89F4A934252D09D4A9342EE
:10155C0069D89D4A93424CD09B4A934263D89B4A8C
:10156C00934246D0994A93425DD8122B2AD8122B1B
:10157C0059D801A252F823F0FF150008D91500081C
:10158C00EB1500082D16000833160008331600085A
:10159C0033160008331600083316000833160008FB
:1015AC0033160008331600083316000833160008EB
:1015BC00331600083316000833160008E11500082E
:1015CC00F5150008824A934213D02CE03B68DB6887
:1015DC003B6229E03B68DB6804333B6224E03B68F8
:1015EC00DB6808333B621FE03B68DB680C333B6213
:1015FC001AE03B689B68002B02D104233B6213E08A
:10160C003B689B68012B05D108233B627B68FA6918
:10161C001A6109E008233B627B68FA695A6103E0AE
:10162C0000233B6200E000BFBB69FF2B01D87B6845
:10163C0001E07B6804337B61BB69FF2B02D87B6ABA
:10164C009B0002E07B6A083B9B003B617B691A684C
:10165C000F213B6901FA03F3DB431A40396A3B69FA
:10166C0001FA03F31A437B691A603B685B6803F069
:10167C008053002B00F09080564B9B69554A43F0E9
:10168C0001039361534B9B6903F00103BB60BB687F
:10169C00514A7B6A9B08023352F82330FB607B6A09
:1016AC0003F003039B000F2202FA03F3DB43FA68F7
:1016BC001340FB607B68494A93420DD07B68484AD3
:1016CC00934207D07B68474A934201D1022304E03E
:1016DC00032302E0012300E000237A6A02F00302F4
:1016EC0092009340FA681343FB603B497B6A9B086A
:1016FC000233FA6841F823203B685B6803F48033BB
:10170C00002B06D0384B1A683749BB6913430B6062
:10171C0006E0354B1A68BB69DB43334913400B6059
:10172C003B685B6803F40033002B06D02E4B5A68E1
:10173C002D49BB6913434B6006E02B4B5A68BB69C0
:10174C00DB43294913404B603B685B6803F480130F
:10175C00002B06D0244B9A682349BB6913438B603A
:10176C0006E0214B9A68BB69DB431F4913408B6031
:10177C003B685B6803F40013002B06D01A4BDA6845
:10178C001949BB691343CB6006E0174BDA68BB6998
:10179C00DB4315491340CB607B6A01337B623B68AA
:1017AC001A687B6A22FA03F3002B7FF4AFAE00BFFA
:1017BC0000BF2C37BD4680BC704700BF0000321004
:1017CC000000311000002210000021100000121047
:1017DC000000111000100240000001400008014000
:1017EC00000C0140001001400004014080B485B0A1
:1017FC0000AF78600B467B807B689A687B881340CF
:10180C00002B02D00123FB7301E00023FB73FB7B55
:10181C0018461437BD4680BC704780B483B000AF07
:10182C0078600B467B8013467B707B78002B03D053
:10183C007A887B681A6103E07B881A047B681A61DA
:10184C0000BF0C37BD4680BC704780B485B000AF7C
:10185C0078600B467B807B68DB68FB607A88FB6872
:10186C0013401A04FB68D9437B880B401A437B68EE
:10187C001A6100BF1437BD4680BC704780B586B076
:10188C0000AF78607B68002B01D101236CE27B6890
:10189C001B6803F00103002B00F08780924B5B6800
:1018AC0003F00C03042B0CD08F4B5B6803F00C0380
:1018BC00082B12D18C4B5B6803F48033B3F5803F5B
:1018CC000BD1894B1B6803F40033002B6CD07B6865
:1018DC005B68002B68D1012346E27B685B68B3F53B
:1018EC00803F06D1804B1B687F4A43F480331360E2
:1018FC002EE07B685B68002B0CD17B4B1B687A4A13
:10190C0023F480331360784B1B68774A23F48023CD
:10191C0013601DE07B685B68B3F5A02F0CD1724B94
:10192C001B68714A43F4802313606F4B1B686E4A2B
:10193C0043F4803313600BE06B4B1B686A4A23F44F
:10194C0080331360684B1B68674A23F48023136051
:10195C007B685B68002B13D0FFF7B6FC386108E09E
:10196C00FFF7B2FC02463B69D31A642B01D903235F
:10197C00FAE15D4B1B6803F40033002BF0D014E04C
:10198C00FFF7A2FC386108E0FFF79EFC02463B69BA
:10199C00D31A642B01D90323E6E1534B1B6803F4E0
:1019AC000033002BF0D100E000BF7B681B6803F014
:1019BC000203002B63D04C4B5B6803F00C03002B31
:1019CC000BD0494B5B6803F00C03082B1CD1464B26
:1019DC005B6803F48033002B16D1434B1B6803F078
:1019EC000203002B05D07B681B69012B01D001235E
:1019FC00BAE13D4B1B6823F0F8027B685B69DB00A6
:101A0C00394913430B603AE07B681B69002B20D0EB
:101A1C00364B01221A60FFF757FC386108E0FFF7DC
:101A2C0053FC02463B69D31A022B01D903239BE1D9
:101A3C002D4B1B6803F00203002BF0D02A4B1B68C4
:101A4C0023F0F8027B685B69DB00274913430B60CA
:101A5C0015E0264B00221A60FFF736FC386108E0CF
:101A6C00FFF732FC02463B69D31A022B01D9032340
:101A7C007AE11D4B1B6803F00203002BF0D17B684D
:101A8C001B6803F00803002B3AD07B689B69002B82
:101A9C0019D0174B01221A60FFF716FC386108E0C9
:101AAC00FFF712FC02463B69D31A022B01D9032320
:101ABC005AE10D4B5B6A03F00203002BF0D00120BE
:101ACC0000F0A6FA1CE00A4B00221A60FFF7FCFBA0
:101ADC0038610FE0FFF7F8FB02463B69D31A022B83
:101AEC0008D9032340E100BF00100240000042422D
:101AFC00800442429E4B5B6A03F00203002BE9D147
:101B0C007B681B6803F00403002B00F0A680002305
:101B1C00FB75974BDB6903F08053002B0DD1944B75
:101B2C00DB69934A43F08053D361914BDB6903F03B
:101B3C008053BB60BB680123FB758E4B1B6803F4A1
:101B4C008073002B18D18B4B1B688A4A43F480732B
:101B5C001360FFF7B9FB386108E0FFF7B5FB0246ED
:101B6C003B69D31A642B01D90323FDE0814B1B681D
:101B7C0003F48073002BF0D07B68DB68012B06D15B
:101B8C007B4B1B6A7A4A43F0010313622DE07B689E
:101B9C00DB68002B0CD1764B1B6A754A23F00103D2
:101BAC001362734B1B6A724A23F0040313621CE02A
:101BBC007B68DB68052B0CD16D4B1B6A6C4A43F0C0
:101BCC00040313626A4B1B6A694A43F001031362F4
:101BDC000BE0674B1B6A664A23F001031362644BEC
:101BEC001B6A634A23F0040313627B68DB68002BD7
:101BFC0015D0FFF769FB38610AE0FFF765FB024679
:101C0C003B69D31A41F28832934201D90323ABE0EA
:101C1C00574B1B6A03F00203002BEED014E0FFF7C6
:101C2C0053FB38610AE0FFF74FFB02463B69D31ABE
:101C3C0041F28832934201D9032395E04C4B1B6A45
:101C4C0003F00203002BEED1FB7D012B05D1484B99
:101C5C00DB69474A23F08053D3617B68DB69002B37
:101C6C0000F08180424B5B6803F00C03082B61D0C1
:101C7C007B68DB69022B46D13F4B00221A60FFF7D1
:101C8C0023FB386108E0FFF71FFB02463B69D31AC0
:101C9C00022B01D9032367E0354B1B6803F000735B
:101CAC00002BF0D17B681B6AB3F5803F08D1304B19
:101CBC005B6823F400327B689B682D4913434B60AF
:101CCC002B4B5B6823F474127B68196A7B685B6A24
:101CDC000B43274913434B60274B01221A60FFF734
:101CEC00F3FA386108E0FFF7EFFA02463B69D31AC2
:101CFC00022B01D9032337E01D4B1B6803F0007343
:101D0C00002BF0D02FE01C4B00221A60FFF7DCFAFE
:101D1C00386108E0FFF7D8FA02463B69D31A022B68
:101D2C0001D9032320E0124B1B6803F00073002B36
:101D3C00F0D118E07B68DB69012B01D1012313E0A2
:101D4C000B4B5B68FB60FB6803F480327B681B6A9F
:101D5C009A4206D1FB6803F470127B685B6A9A4264
:101D6C0001D0012300E0002318461837BD4680BD82
:101D7C0000100240007000406000424280B584B008
:101D8C0000AF786039607B68002B01D10123D0E073
:101D9C006A4B1B6803F007033A689A4210D9674BE9
:101DAC001B6823F0070265493B6813430B60634BC8
:101DBC001B6803F007033A689A4201D00123B8E08C
:101DCC007B681B6803F00203002B20D07B681B6828
:101DDC0003F00403002B05D0594B5B68584A43F4BD
:101DEC00E06353607B681B6803F00803002B05D08D
:101DFC00534B5B68524A43F460535360504B5B68DF
:101E0C0023F0F0027B689B684D4913434B607B6861
:101E1C001B6803F00103002B40D07B685B68012B2F
:101E2C0007D1474B1B6803F40033002B15D101235A
:101E3C007FE07B685B68022B07D1414B1B6803F08A
:101E4C000073002B09D1012373E03D4B1B6803F099
:101E5C000203002B01D101236BE0394B5B6823F0AB
:101E6C0003027B685B68364913434B60FFF72CFA1F
:101E7C00F8600AE0FFF728FA0246FB68D31A41F231
:101E8C008832934201D9032353E02D4B5B6803F056
:101E9C000C027B685B689B009A42EBD1274B1B685A
:101EAC0003F007033A689A4210D2244B1B6823F0C4
:101EBC00070222493B6813430B60204B1B6803F05D
:101ECC0007033A689A4201D0012332E07B681B6811
:101EDC0003F00403002B08D0194B5B6823F4E06279
:101EEC007B68DB68164913434B607B681B6803F007
:101EFC000803002B09D0124B5B6823F460527B68FB
:101F0C001B69DB000E4913434B6000F021F80246BD
:101F1C000B4B5B681B0903F00F030A49CB5C22FADD
:101F2C0003F3094A1360094B1B681846FFF78AF93B
:101F3C00002318461037BD4680BD00BF002002406C
:101F4C0000100240D4290008A0000020A4000020AA
:101F5C0090B48AB000AF2A4B3C1D0FCB84E80F0025
:101F6C0040F201233B800023FB610023BB61002373
:101F7C007B6200237B6100233B62224B5B68FB612D
:101F8C00FB6903F00C03042B02D0082B03D02DE0CB
:101F9C001D4B3B622DE0FB699B0C03F00F0307F11B
:101FAC002802134413F8243C7B61FB6903F480334F
:101FBC00002B13D0134B5B685B0C03F0010307F190
:101FCC002802134413F8283CBB617B690E4A02FBC0
:101FDC0003F2BB69B2FBF3F37B6204E07B690B4A4F
:101FEC0002FB03F37B627B6A3B6202E0064B3B62C3
:101FFC0000BF3B6A18462837BD4690BC704700BFEF
:10200C00C42900080010024000127A0000093D00AB
:10201C0080B485B000AF78600A4B1B680A4AA2FBFB
:10202C0003235B0A7A6802FB03F3FB6000BFFB68C7
:10203C005A1EFA60002BF9D100BF00BF1437BD4601
:10204C0080BC7047A0000020D34D621080B582B0D8
:10205C0000AF78607B68002B01D1012341E07B68E5
:10206C0093F83D30DBB2002B06D17B68002283F85D
:10207C003C207868FEF7D2FF7B68022283F83D2073
:10208C007B681A687B6804331946104600F06AFABC
:10209C007B68012283F846207B68012283F83E206E
:1020AC007B68012283F83F207B68012283F8402063
:1020BC007B68012283F841207B68012283F842204F
:1020CC007B68012283F843207B68012283F844203B
:1020DC007B68012283F845207B68012283F83D2030
:1020EC00002318460837BD4680BD000080B485B07B
:1020FC0000AF78607B6893F83D30DBB2012B01D0E8
:10210C00012335E07B68022283F83D207B681B6845
:10211C00DA687B681B6842F00102DA607B681B6836
:10212C00164A934209D07B681B68B3F1804F04D0E8
:10213C007B681B68124A934211D17B681B689B68B1
:10214C0003F00703FB60FB68062B10D07B681B6851
:10215C001A687B681B6842F001021A6007E07B6812
:10216C001B681A687B681B6842F001021A60002326
:10217C0018461437BD4680BC704700BF002C014088
:10218C000004004080B582B000AF78607B681B68AB
:10219C001B6903F00203022B22D17B681B68DB68EE
:1021AC0003F00203022B1BD17B681B686FF0020249
:1021BC001A617B6801221A777B681B689B6903F0A4
:1021CC000303002B03D0786800F0B1F905E07868C0
:1021DC0000F0A4F9786800F0B3F97B6800221A7754
:1021EC007B681B681B6903F00403042B22D17B68FA
:1021FC001B68DB6803F00403042B1BD17B681B6892
:10220C006FF004021A617B6802221A777B681B68E4
:10221C009B6903F44073002B03D0786800F087F9B6
:10222C0005E0786800F07AF9786800F089F97B6845
:10223C0000221A777B681B681B6903F00803082BC4
:10224C0022D17B681B68DB6803F00803082B1BD1C9
:10225C007B681B686FF008021A617B6804221A778E
:10226C007B681B68DB6903F00303002B03D07868E1
:10227C0000F05DF905E0786800F050F9786800F03E
:10228C005FF97B6800221A777B681B681B6903F077
:10229C001003102B22D17B681B68DB6803F0100342
:1022AC00102B1BD17B681B686FF010021A617B68C6
:1022BC0008221A777B681B68DB6903F44073002BD8
:1022CC0003D0786800F033F905E0786800F026F95F
:1022DC00786800F035F97B6800221A777B681B68F8
:1022EC001B6903F00103012B0ED17B681B68DB68B3
:1022FC0003F00103012B07D17B681B686FF001020F
:10230C001A617868FEF7D6FC7B681B681B6903F0C2
:10231C008003802B0ED17B681B68DB6803F0800385
:10232C00802B07D17B681B686FF080021A6178687C
:10233C0000F067FA7B681B681B6903F04003402BB5
:10234C000ED17B681B68DB6803F04003402B07D180
:10235C007B681B686FF040021A61786800F0F9F82E
:10236C007B681B681B6903F02003202B0ED17B6854
:10237C001B68DB6803F02003202B07D17B681B68EC
:10238C006FF020021A61786800F032FA00BF08374B
:10239C00BD4680BD80B584B000AF786039607B6885
:1023AC0093F83C30012B01D10223B3E07B6801226E
:1023BC0083F83C207B68022283F83D207B681B68F5
:1023CC009B68FB60FB6823F07703FB60FB6823F4DE
:1023DC007F43FB607B681B68FA689A603B681B68EC
:1023EC00B3F5005F3ED0B3F5005F00F28780B3F524
:1023FC00805F00F08580B3F5805F7FD8702B1AD09A
:10240C00702B7BD8602B50D0602B77D8502B3CD0C6
:10241C00502B73D8402B58D0402B6FD8302B64D016
:10242C00302B6BD8202B60D0202B67D8002B5CD0A6
:10243C00102B5AD062E07B6818683B6899683B683F
:10244C005A683B68DB6800F05CF97B681B689B682A
:10245C00FB60FB6843F07703FB607B681B68FA68E2
:10246C009A604EE07B6818683B6899683B685A68CC
:10247C003B68DB6800F045F97B681B689A687B68F1
:10248C001B6842F480429A603BE07B6818683B68AA
:10249C0059683B68DB681A4600F0BCF87B681B681F
:1024AC005021184600F013F92BE07B6818683B6844
:1024BC0059683B68DB681A4600F0DAF87B681B68E1
:1024CC006021184600F003F91BE07B6818683B6834
:1024DC0059683B68DB681A4600F09CF87B681B68FF
:1024EC004021184600F0F3F80BE07B681A683B6853
:1024FC001B681946104600F0EAF802E000BF00E045
:10250C0000BF7B68012283F83D207B68002283F8A2
:10251C003C20002318461037BD4680BD80B483B0E4
:10252C0000AF786000BF0C37BD4680BC704780B4EC
:10253C0083B000AF786000BF0C37BD4680BC7047DD
:10254C0080B483B000AF786000BF0C37BD4680BC50
:10255C00704780B483B000AF786000BF0C37BD46C5
:10256C0080BC704780B485B000AF786039607B6800
:10257C001B68FB607B68254A934207D07B68B3F1EC
:10258C00804F03D07B68224A934208D1FB6823F02A
:10259C007003FB603B685B68FA681343FB607B6805
:1025AC001A4A934207D07B68B3F1804F03D07B6803
:1025BC00174A934208D1FB6823F44073FB603B68D5
:1025CC00DB68FA681343FB60FB6823F080023B680E
:1025DC005B691343FB607B68FA681A603B689A6816
:1025EC007B68DA623B681A687B689A627B68074A88
:1025FC00934203D13B681A697B681A637B6801229A
:10260C005A6100BF1437BD4680BC7047002C014096
:10261C000004004080B487B000AFF860B9607A6005
:10262C00FB681B6A7B61FB681B6A23F00102FB6879
:10263C001A62FB689B693B613B6923F0F0033B61C9
:10264C007B681B013A6913433B617B6923F00A03E6
:10265C007B617A69BB6813437B61FB683A699A6159
:10266C00FB687A691A6200BF1C37BD4680BC704794
:10267C0080B487B000AFF860B9607A60FB681B6A01
:10268C0023F01002FB681A62FB689B697B61FB6894
:10269C001B6A3B617B6923F470437B617B681B0382
:1026AC007A6913437B613B6923F0A0033B61BB68F0
:1026BC001B013A6913433B61FB687A699A61FB68B9
:1026CC003A691A6200BF1C37BD4680BC704780B4A3
:1026DC0085B000AF786039607B689B68FB60FB68F5
:1026EC0023F07003FB603A68FB68134343F0070365
:1026FC00FB607B68FA689A6000BF1437BD4680BCEB
:10270C00704780B487B000AFF860B9607A603B6006
:10271C00FB689B687B617B6923F47F437B613B682F
:10272C001A027B681A43BB6813437A6913437B61B3
:10273C00FB687A699A6000BF1C37BD4680BC704745
:10274C0080B485B000AF786039607B6893F83C301A
:10275C00012B01D1022341E07B68012283F83C204C
:10276C007B68022283F83D207B681B685B68FB60FA
:10277C007B681B689B68BB60FB6823F07003FB6085
:10278C003B681B68FA681343FB607B681B68FA683C
:10279C005A607B681B68144A934209D07B681B689B
:1027AC00B3F1804F04D07B681B68104A93420CD164
:1027BC00BB6823F08003BB603B685B68BA6813435B
:1027CC00BB607B681B68BA689A607B68012283F8DF
:1027DC003D207B68002283F83C20002318461437E8
:1027EC00BD4680BC704700BF002C01400004004077
:1027FC0080B483B000AF786000BF0C37BD4680BC9E
:10280C00704780B483B000AF786000BF0C37BD4612
:10281C0080BC704770B500260C4D0D4C641BA41089
:10282C00A64209D100F030F800260A4D0A4C641B70
:10283C00A410A64205D170BD55F8043B984701364B
:10284C00EEE755F8043B98470136F2E7E429000817
:10285C00E4290008E4290008E82900080A44914208
:10286C0000F1FF3300D1704710B511F8014B9142C4
:10287C0003F8014FF9D110BD03460244934200D135
:10288C00704703F8011BF9E7F8B500BFF8BC08BCAA
:10289C009E467047F8B500BFF8BC08BC9E46704712
:1028AC00000000000000000000000000000000001C
:1028BC00000000000000000001000000010000000A
:1028CC0000000000000000000100000001000000FA
:1028DC0001000000010000000000000000000000EA
:1028EC0001000000000000000000000001000000DA
:1028FC0000000000000000000000000000000000CC
:10290C0000000000010000000100000000000000B9
:10291C0001000000000000000000000001000000A9
:10292C00010000000000000000000000000000009A
:10293C000100000000000000000000000100000089
:10294C00000000000000000000000000010000007A
:10295C00000000000000000000000000000000006B
:10296C00000000000000000000000000000000005B
:10297C000100000001000000010000000100000047
:10298C00000000000000000000000000000000003B
:10299C00000000000000000000000000000000002B
:1029AC00000000000000000000000000010000001A
:1029BC0000000000000000000203040506070809DF
:1029CC000A0B0C0D0E0F1010000000000000000090
:0829DC000102030406070809CB
:0429E40031010008B5
:0429E8000D010008D5
:1029EC0001000000010000000100000001000000D7
:1029FC0001000000010000000100000001000000C7
:102A0C0001000000010000000100000001000000B6
:102A1C00F4010000F4010000F40100000008014082
:102A2C000008014000080140001000200040000098
:102A3C000008014000080140000801400008014066
:102A4C0000080140000801400200100004002000B2
:102A5C000800400088130000D0070000B80B0000ED
:102A6C000100000000000000000000000100000058
:102A7C000100000002000000030000000400000040
:0C2A8C000024F400100000000100000015
:04000005080011D905
:00000001FF
